:100000000C9446000C945D000C945D000C945D0013
:100010000C945D000C945D000C945D000C945D00EC
:100020000C945D000C945D000C945D000C945D00DC
:100030000C945D000C945D000C945D000C945D00CC
:100040000C945D000C945D000C945D000C945D00BC
:100050000C945D000C945D000C945D000C945D00AC
:100060000C945D000C945D000C945D000C945D009C
:100070000C945D000C945D000C945D000C945D008C
:100080000C945D000C945D000C945D0011241FBE67
:10009000CFEFD0E1DEBFCDBF11E0A0E0B1E0E8E2FC
:1000A000F3E000E00BBF02C007900D92A031B10752
:1000B000D9F70E947A010C9492010C9400006623F7
:1000C00011F0A89A01C0A898A998A49AA59AA69AEE
:1000D000A79AAF98AE98AD98AC9887FDAF9A86FD79
:1000E000AE9A85FDAD9A84FDAC9AAA9A00C0AA98F2
:1000F000AF98AE98AD98AC9883FDAF9A82FDAE9A5A
:1001000081FDAD9A80FDAC9AAA9A00C0AA98AC9ADB
:10011000AD9AAE9AAF9A0895882311F0A89A01C0BB
:10012000A898A99AA498A598A698A798AA9A00C052
:100130009C9B02C080E101C080E09D9980629E99F5
:1001400080649F998068AA9800C0AA9A00C09C9970
:1001500081609D9982609E9984609F998860AA9829
:10016000089580E00E948C0087FDFBCF84E090E042
:100170000197F1F780E00E948C0008951F93182FDB
:100180000E94B100812F60E00E945F001F910895DE
:100190001F93182F0E94B100812F61E00E945F0021
:1001A0001F910895662311F4805801C080540E9465
:1001B000BE0008950E94B10090E0089581E00E9481
:1001C000BE00089582E00E94BE0008951F93182F7C
:1001D0000E94B100812F61E00E945F001F9108958D
:1001E0001F93182F0E94B1001A3049F4803410F088
:1001F00080E001C080E480580E94BE0004C0812FCE
:1002000061E00E945F001F910895CF93DF93EC019E
:1002100002C00E94F00089918823D9F7DF91CF9125
:100220000895CF93DF93EC0102C00E94F000FE011D
:10023000219684918823C9F7DF91CF9108951F9368
:10024000182FA09AA19AA29AA49AA59AA69AA79AB8
:1002500080E09DE70197F1F7AD9AAC9AAA9A00C0A9
:10026000AA9880E097E20197F1F7AA9A00C0AA98AD
:1002700080E890E0FC013197F1F7AA9A00C0AA98B3
:10028000FC013197F1F7AC98AA9A00C0AA9801979F
:10029000F1F788E20E94BE0088E00E94BE000E9442
:1002A000DE0086E00E94BE00812F0E94BE001F91EA
:1002B00008950F931F93CF93DF938B01883090F4B1
:1002C000880F880F880F805C0E94BE00C0E0D0E0DD
:1002D000F801EC0FFD1F80810E94E6002196C830D6
:1002E000D105B1F780E80E94BE00DF91CF911F9148
:1002F0000F9108958CE00E941F0180E060E071E0A2
:100300000E94590181E068E071E00E94590180E09B
:100310000E94F00080E061E00E94D20081E00E9433
:08032000F000FFCFF894FFCFBD
:10032800000F1A1C1E0F00000E1F151F111F1500AD
:00000001FF
