:100000000C9446000C9465000C9465000C946500FB
:100010000C9465000C9465000C9465000C946500CC
:100020000C9467000C9465000C9465000C946500BA
:100030000C9465000C9465000C9465000C9476009B
:100040000C9465000C9465000C9465000C9465009C
:100050000C9465000C9465000C9465000C9465008C
:100060000C9465000C9465000C9465000C9465007C
:100070000C9465000C9465000C9465000C9465006C
:100080000C9465000C9465000C94650011241FBE4F
:10009000CFEFD0E1DEBFCDBF11E0A0E0B1E0E6E6FA
:1000A000F1E000E00BBF02C007900D92A030B10755
:1000B000D9F711E0A0E0B1E001C01D92A230B10774
:1000C000E1F70E949A000C94B1000C9400001F927A
:1000D0000F920FB60F9211248F9382B3805882BB78
:1000E0008F910F900FBE0F901F9018951F920F9237
:1000F0000FB60F9211242F938F939F93809100013D
:100100009091010101969093010180930001845F19
:10011000914041F4109201011092000182B390E1EC
:10012000892782BB9F918F912F910F900FBE0F90C7
:100130001F90189581B3806981BBBC9A949A979A55
:10014000179883B78B6183BF89EF81BF87B78260C0
:1001500087BF8AB780688ABF89B7806889BF78946B
:06016000FFCFF894FFCF71
:00000001FF
