:100000000C9446000C945D000C945D000C945D0013
:100010000C945D000C945D000C945D000C945D00EC
:100020000C945F000C945D000C945D000C945D00DA
:100030000C945D000C945D000C945D000C945D00CC
:100040000C945D000C945D000C945D000C945D00BC
:100050000C945D000C945D000C945D000C945D00AC
:100060000C945D000C945D000C945D000C945D009C
:100070000C945D000C945D000C945D000C945D008C
:100080000C945D000C945D000C945D0011241FBE67
:10009000CFEFD0E1DEBFCDBF11E0A0E0B1E0E6E1FF
:1000A000F1E000E00BBF02C007900D92A030B10755
:1000B000D9F70E946E000C9489000C9400001F92E6
:1000C0000F920FB60F9211248F9382B3805882BB88
:1000D0008F910F900FBE0F901F90189581B380697C
:1000E00081BB949A979A17988AB780688ABF89B714
:1000F000806889BF789440E128EC30E082B384279F
:1001000082BB84EF91E0F9013197F1F70197D9F7BC
:06011000F5CFF894FFCFCB
:00000001FF
