:100000000C9446000C9465000C9465000C946500FB
:100010000C9465000C9465000C9465000C946500CC
:100020000C9467000C9465000C9465000C946500BA
:100030000C9465000C9465000C9465000C946500AC
:100040000C9465000C9465000C9465000C9465009C
:100050000C9465000C9465000C9465000C9465008C
:100060000C9465000C9465000C9465000C9465007C
:100070000C9465000C9465000C9465000C9465006C
:100080000C9465000C9465000C94650011241FBE4F
:10009000CFEFD0E1DEBFCDBF11E0A0E0B1E0E8E1FD
:1000A000F1E000E00BBF02C007900D92A030B10755
:1000B000D9F711E0A0E0B1E001C01D92A230B10774
:1000C000E1F70E9476000C948A000C9400001F92C5
:1000D0000F920FB60F9211248F9382B3805882BB78
:1000E0008F910F900FBE0F901F90189581B380696C
:1000F00081BBBC9A949A979A179883B78B6683BFF3
:1001000084E681BF8AB780688ABF89B7806889BF63
:080110007894FFCFF894FFCFB3
:00000001FF
