:100000000C9446000C9465000C9465000C946500FB
:100010000C9465000C9465000C9465000C946500CC
:100020000C9465000C9465000C9465000C946500BC
:100030000C9465000C9465000C9465000C946700AA
:100040000C9465000C9465000C9465000C9465009C
:100050000C9465000C9465000C9465000C9465008C
:100060000C9465000C9465000C9465000C9465007C
:100070000C9465000C9465000C9465000C9465006C
:100080000C9465000C9465000C94650011241FBE4F
:10009000CFEFD0E1DEBFCDBF11E0A0E0B1E0EAE6F6
:1000A000F1E000E00BBF02C007900D92A230B10753
:1000B000D9F711E0A2E0B1E001C01D92A630B1076E
:1000C000E1F70E949B000C94B3000C9400001F9277
:1000D0000F920FB60F9211248F931BBA80910001DB
:1000E000823081F0833018F48130E1F405C0833030
:1000F00079F08430B9F412C08091030180618BBB28
:1001000082E011C08091050180628BBB83E00BC04F
:100110008091040180648BBB84E005C08091020162
:1001200080688BBB81E0809300018F910F900FBEA0
:100130000F901F9018958FEF8ABB83B78B6183BF99
:1001400089EF81BF87B7826087BF789481E0809311
:10015000030182E08093050183E08093040184E041
:0A01600080930201FFCFF894FFCF57
:02016A00010092
:00000001FF
