:100000000C9446000C945D000C945D000C945D0013
:100010000C945D000C945D000C945D000C945D00EC
:100020000C945D000C945D000C945D000C945D00DC
:100030000C945D000C945D000C945D000C945D00CC
:100040000C945D000C945D000C945D000C945D00BC
:100050000C945D000C945D000C945D000C945D00AC
:100060000C945D000C945D000C945D000C945D009C
:100070000C945D000C945D000C945D000C945D008C
:100080000C945D000C945D000C945D0011241FBE67
:10009000CFEFD0E1DEBFCDBF11E0A0E0B1E0EEE7F1
:1000A000F4E000E00BBF02C007900D92AC30B10746
:1000B000D9F70E945F000C943D020C9400000F934E
:1000C0001F930E94FB010E94A1010E947B0180E01E
:1000D00060E00E94EC0080E091E00E946E0100E090
:1000E00010E0802F612F41E00E94FF001F5F103160
:1000F000C1F70F5F0038A1F7FFCFDF93CF930F92C7
:10010000CDB7DEB7198204C0000089818F5F898373
:1001100089818830C8F30F90CF91DF9108958FEFD8
:1001200084BB87E78ABB8BB387678BBB089514BA00
:100130008BB38F7C8BBB0E947D0083B39FEF94BBFE
:100140009BB390639BBB08951F93182F0E94970049
:1001500090E083709070892BC9F315BB8BB38F7AB5
:100160008BBB0E947D008BB380658BBB1F91089574
:100170001F93182F0E94970090E083709070892B36
:10018000C9F315BB8BB38B7A8BBB0E947D008BB3FD
:1001900084658BBB1F9108950E94970090E0837047
:1001A0009070892BC9F314BA8BB38B7C8BBB0E94E4
:1001B0007D0083B39BB394639BBB9FEF94BB089577
:1001C0001F93192F0E94B800812F0E94B80084E26B
:1001D0000E94A4001F91089570E094E0660F771FBD
:1001E0009A95E1F79B01280F311DC9010E94E0009B
:1001F00008950E94B80080EC0E94A40008950F9317
:100200001F93182F042F86958695869590E0805031
:100210009F4F70E024E0660F771F2A95E1F7860F65
:10022000971F0E94E00085EC0E94A4000E94CC0071
:10023000482F212F30E0002369F02095309527705A
:10024000307081E090E002C0880F991F2A95E2F794
:10025000842B0DC0209530952770307081E090E0A0
:1002600002C0880F991F2A95E2F7809584230E9487
:10027000F9001F910F9108950F931F93CF93DF9370
:100280008B0190E080509E4F33E0880F991F3A9584
:10029000E1F70E94E000C0E0D0E0F801EC0FFD1FA4
:1002A00080810E94F9002196C830D105B1F7DF9115
:1002B000CF911F910F91089580520E94F9000895E7
:1002C000CF93DF93EC0102C00E945C01FE012196F6
:1002D00084918823C9F7DF91CF910895CF93DF935D
:1002E000EC0103C021960E945C0188818823D1F72C
:1002F000DF91CF910895CF93DF9380E091E00E944A
:10030000E000C0E0D0E080E00E94F900219688E0A3
:10031000C030D807C1F7DF91CF910895CF93DF9315
:1003200080E090E10E94E000C0E0D0E080E00E9428
:10033000F900219688E0C030D807C1F7DF91CF914E
:100340000895CF93DF9380E090E00E94E000C0E04A
:10035000D0E080E00E94F900219681E0C030D8070B
:10036000C1F7DF91CF91089586958695869590E0A7
:1003700080509F4F70E044E0660F771F4A95E1F789
:10038000860F971F0E94E0000895AF92BF92CF9210
:10039000DF92EF92FF920F931F93CF93DF93A62EDE
:1003A000B42ED22EC02ED694D694D6947C0100E0E2
:1003B00015C0602F6B0D8A2D0E94B401E70110E07B
:1003C00006C0FE0184910E94F9001F5F21961D1551
:1003D000C0F30F5F80E190E0E80EF91E0C1548F3C2
:1003E000DF91CF911F910F91FF90EF90DF90CF9011
:1003F000BF90AF9008958FEF84BB87E78ABB8BB324
:1004000087678BBBD99880ED97E00197F1F7D99A70
:10041000D89880E00E94B80081E00E94B80082E491
:100420000E94A40080E10E94B80080E00E94B80011
:1004300083E40E94A40080E00E94B80080E00E9453
:10044000B80080E40E94A40080E10E94B80080E02F
:100450000E94B80081E40E94A40082E00E94B800DB
:1004600080E00E94B80082E20E94A4008CE90E9411
:0E047000A40081E80E94A4000895F894FFCF34
:0C047E00484F4C41204D554E444F0000AB
:00000001FF
