:100000000C9446000C945D000C945D000C945D0013
:100010000C945D000C945D000C945D000C945D00EC
:100020000C945D000C945D000C945D000C945D00DC
:100030000C945D000C945D000C945D000C945D00CC
:100040000C945D000C945D000C945D000C945D00BC
:100050000C945D000C945D000C945D000C945D00AC
:100060000C945D000C945D000C945D000C945D009C
:100070000C945D000C945D000C945D000C945D008C
:100080000C945D000C945D000C945D0011241FBE67
:10009000CFEFD0E1DEBFCDBF11E0A0E0B1E0E2EBF9
:1000A000F2E000E00BBF02C007900D92AC30B10748
:1000B000D9F70E944F010C9457010C94000066235D
:1000C00011F0A89A01C0A898A998A49AA59AA69AEE
:1000D000A79AAF98AE98AD98AC9887FDAF9A86FD79
:1000E000AE9A85FDAD9A84FDAC9AAA9A00C0AA98F2
:1000F000AF98AE98AD98AC9883FDAF9A82FDAE9A5A
:1001000081FDAD9A80FDAC9AAA9A00C0AA98AC9ADB
:10011000AD9AAE9AAF9A0895882311F0A89A01C0BB
:10012000A898A99AA498A598A698A798AA9A00C052
:100130009C9B02C080E101C080E09D9980629E99F5
:1001400080649F998068AA9800C0AA9A00C09C9970
:1001500081609D9982609E9984609F998860AA9829
:10016000089580E00E948C0087FDFBCF84E090E042
:100170000197F1F780E00E948C0008951F93182FDB
:100180000E94B100812F60E00E945F001F910895DE
:100190001F93182F0E94B100812F61E00E945F0021
:1001A0001F910895662311F4805801C080540E9465
:1001B000BE0008950E94B10090E0089581E00E9481
:1001C000BE00089582E00E94BE0008951F93182F7C
:1001D0000E94B1001A3049F4803410F080E001C070
:1001E00080E480580E94BE0004C0812F61E00E941C
:1001F0005F001F910895CF93DF93EC0102C00E942E
:10020000E60089918823D9F7DF91CF910895CF93A4
:10021000DF93EC0102C00E94E600FE01219684916A
:100220008823C9F7DF91CF9108951F93182FA09AC3
:10023000A19AA29AA49AA59AA69AA79A80E09DE765
:100240000197F1F7AD9AAC9AAA9A00C0AA9880E0FB
:1002500097E20197F1F7AA9A00C0AA9880E890E087
:10026000FC013197F1F7AA9A00C0AA98FC013197D6
:10027000F1F7AC98AA9A00C0AA980197F1F788E222
:100280000E94BE0088E00E94BE000E94DE0086E060
:100290000E94BE00812F0E94BE001F9108958CE035
:1002A0000E94150180E091E00E94FB00FFCFF894CE
:0202B000FFCF7E
:0C02B200484F4C41204D554E444F000079
:00000001FF
