:100000000C9446000C9465000C9465000C946500FB
:100010000C9465000C9465000C9465000C946500CC
:100020000C9465000C9465000C9465000C946500BC
:100030000C9465000C9465000C9465000C94B00061
:100040000C94A6000C9465000C9465000C9465005B
:100050000C9465000C9465000C9465000C9465008C
:100060000C9465000C9465000C9465000C9465007C
:100070000C9465000C9465000C9465000C9465006C
:100080000C9465000C9465000C94650011241FBE4F
:10009000CFEFD0E1DEBFCDBF11E0A0E0B1E0E4E002
:1000A000F4E000E00BBF02C007900D92A437B10747
:1000B000D9F711E0A4E7B1E001C01D92A537B1075F
:1000C000E1F70E94CD010C9400020C940000582F1F
:1000D00080E0543008F081E090E0663008F091E074
:1000E000892B90E020E030E0443010F021E030E057
:1000F000822B932B892B41F513BE87B78E7F87BF49
:10010000513051F0513028F0523059F05330E1F471
:100110000CC0C69A83B70DC04130B1F083B780647C
:1001200008C0C69A83B7886004C0413069F083B7BD
:10013000816483BF83B74295407F842B83BF83B79D
:10014000862B83BF81E0089580E008951F920F926F
:100150000FB60F9211240F900FBE0F901F9018959D
:100160001F920F920FB60F9211240F900FBE0F9097
:100170001F901895662311F0A89A01C0A898A99815
:10018000A49AA59AA69AA79AAF98AE98AD98AC985B
:1001900087FDAF9A86FDAE9A85FDAD9A84FDAC9A37
:1001A000AA9A00C0AA98AF98AE98AD98AC9883FD73
:1001B000AF9A82FDAE9A81FDAD9A80FDAC9AAA9A63
:1001C00000C0AA98AC9AAD9AAE9AAF9A08958823C7
:1001D00011F0A89A01C0A898A99AA498A598A698E1
:1001E000A798AA9A00C09C9B02C080E101C080E051
:1001F0009D9980629E9980649F998068AA9800C0AA
:10020000AA9A00C09C9981609D9982609E998460A1
:100210009F998860AA98089580E00E94E70087FD72
:10022000FBCF84E090E00197F1F780E00E94E700C7
:1002300008951F93182F0E940C01812F60E00E94E7
:10024000BA001F9108951F93182F0E940C01812F4F
:1002500061E00E94BA001F910895662311F480584E
:1002600001C080540E94190108950E940C0190E081
:10027000089581E00E941901089582E00E94190109
:1002800008951F93182F0E940C011A3049F48034EE
:1002900010F080E001C080E480580E94190104C081
:1002A000812F61E00E94BA001F910895CF93DF93E0
:1002B000EC0102C00E94410189918823D9F7DF91A6
:1002C000CF910895CF93DF93EC0102C00E944101CA
:1002D000FE01219684918823C9F7DF91CF9108957B
:1002E0001F93182FA09AA19AA29AA49AA59AA69AA7
:1002F000A79A80E09DE70197F1F7AD9AAC9AAA9A88
:1003000000C0AA9880E097E20197F1F7AA9A00C08E
:10031000AA9880E890E0FC013197F1F7AA9A00C012
:10032000AA98FC013197F1F7AC98AA9A00C0AA9854
:100330000197F1F788E20E94190188E00E941901F3
:100340000E94390186E00E941901812F0E94190143
:100350001F9108951BB88AB188618AB9E5E9F0E078
:1003600080818660808383E389B91092900008952C
:100370005D9BFECF8CB90895FC0103C05D9BFECF51
:100380008CB981918823D1F75D9BFECF8AE08CB92F
:100390005D9BFECF8DE08CB90895119A81B3806F7B
:1003A00081BB82B3806F82BB0E94AA0180E091E092
:1003B0000E94BC018DE191E00E94BC0181E391E0CB
:1003C0000E94BC0183E491E00E94BC015F9BFECFD0
:1003D0008CB1823331F0833331F0813341F494981E
:1003E000E5CF949AE3CF82B3805882BBDFCF82E619
:1003F00091E00E94BC01DACF5F9BFECF8CB10895E3
:04040000F894FFCF9E
:1004040053454C454343494F4E45204C41204F50A2
:1004140043494F4E204445534541444100312E2029
:10042400454E43454E44455220454C204C454434AA
:1004340000322E2041504147415220454C204C452A
:10044400443400332E2043414D4249415220454C0F
:100454002045535441444F2044454C204C454420AE
:1004640037004F5043494F4E20494E434F52524557
:0404740043544100AC
:00000001FF
