:100000000C9446000C9465000C9465000C946F07EA
:100010000C9465000C9465000C9465000C946500CC
:100020000C9465000C9465000C9465000C946500BC
:100030000C9465000C9465000C9465000C945807B2
:100040000C9465000C9465000C9465000C9465009C
:100050000C9465000C9465000C9465000C9465008C
:100060000C9465000C9465000C9465000C9465007C
:100070000C9465000C9465000C9465000C9465006C
:100080000C9465000C9465000C94650011241FBE4F
:10009000CFEFD0E1DEBFCDBF12E0A0E0B1E0E6E7F8
:1000A000F6E100E00BBF02C007900D92AA32B10743
:1000B000D9F712E0AAE2B2E001C01D92A033B10765
:1000C000E1F70E94BF070C94390B0C940000EF92EB
:1000D000FF920F931F937B018C0120E030E040E002
:1000E0005FE40E94370388238CF0C801B70120E049
:1000F00030E040E05FE40E94DF010E9467039B0163
:10010000AC01205030404040504806C0C801B70103
:100110000E9467039B01AC01B901CA011F910F91B5
:10012000FF90EF900895A0E0B0E0E9E9F0E00C94D2
:100130002B08DC012B01FA019C91923008F439C1A3
:10014000EB018881823008F433C1943069F4843043
:1001500009F02FC111969C9111978981981709F484
:1001600028C1ABE1B1E025C1843009F421C182305E
:10017000A9F4923009F01DC19A01AD0188E0EA01AD
:100180000990AE01E90109929E018150C1F7E20197
:10019000898111969C918923818308C1923009F449
:1001A00007C112962D903C901397EB018A819B8199
:1001B0001496AD90BD90CD90DC901797EC80FD80AB
:1001C0000E811F819101281B390BB90137FF04C033
:1001D00066277727621B730B603271050CF061C0D4
:1001E000121613066CF537014801062E04C09694CA
:1001F0008794779467940A94D2F721E030E040E046
:1002000050E004C0220F331F441F551F6A95D2F7D8
:1002100021503040404050402E213F214023512367
:10022000211531054105510521F021E030E040E084
:1002300050E079018A01E628F728082919293CC0ED
:10024000232BD1F1260E371E35014601062E04C0A0
:1002500096948794779467940A94D2F721E030E0DB
:1002600040E050E004C0220F331F441F551F6A9521
:10027000D2F721503040404050402A213B214C21B0
:100280005D21211531054105510521F021E030E0C6
:1002900040E050E059016A01A628B728C828D928AB
:1002A0000BC0821593052CF01C01AA24BB24650108
:1002B00003C0EE24FF24870111969C91D201119670
:1002C0008C91981709F445C0992339F0A80197013A
:1002D0002A193B094C095D0906C0A60195012E1992
:1002E0003F09400B510B57FD08C011823382228217
:1002F00024833583468357831DC081E08183338205
:10030000228288279927DC01821B930BA40BB50B53
:1003100084839583A683B7830DC0220F331F441FA8
:10032000551F2483358346835783828193810197A8
:10033000938382832481358146815781DA01C90103
:100340000197A109B1098F5F9F4FAF4FBF4328F3BA
:100350000BC0918333822282EA0CFB1C0C1D1D1DF5
:10036000E482F5820683178383E0808324813581CC
:100370004681578157FF1AC0C901AA2797FDA0954A
:10038000BA2F81709070A070B070569547953795D0
:100390002795822B932BA42BB52B84839583A6833F
:1003A000B78382819381019693838283DF0101C0A9
:1003B000D201CD01CDB7DEB7E2E10C944708A0E24F
:1003C000B0E0E5EEF1E00C94370869837A838B8323
:1003D0009C832D833E834F835887E9E0EE2EF12CDA
:1003E000EC0EFD1ECE010196B7010E9458058E014C
:1003F0000F5E1F4FCE010596B8010E9458058A89ED
:1004000091E089278A8BC701B801AE01475E5F4F33
:100410000E9493000E948304A096E6E00C94530887
:10042000A0E2B0E0E6E1F2E00C94370869837A8359
:100430008B839C832D833E834F835887F9E0EF2E77
:10044000F12CEC0EFD1ECE010196B7010E9458055D
:100450008E010F5E1F4FCE010596B8010E94580510
:10046000C701B801AE01475E5F4F0E9493000E9432
:100470008304A096E6E00C945308A0E2B0E0E3E425
:10048000F2E00C942B0869837A838B839C832D8301
:100490003E834F835887CE010196BE01675F7F4F31
:1004A0000E945805CE010596BE016F5E7F4F0E94E7
:1004B00058059985923088F089898230C8F0943047
:1004C00019F4823051F404C0843029F4923081F45C
:1004D0008BE191E0C6C0923049F420E09A858A8988
:1004E000981321E02A87CE010996BBC0823049F4D7
:1004F00020E09A858A89981321E02A8BCE014196C3
:10050000B0C02D843E844F8458886D887E888F8843
:10051000988CEE24FF248701AA24BB24650140E0C7
:1005200050E060E070E0E0E0F0E0C10181709070C8
:10053000892BE9F0E60CF71C081D191D9A01AB0187
:100540002A0D3B1D4C1D5D1D80E090E0A0E0B0E059
:10055000E614F7040805190520F481E090E0A0E016
:10056000B0E0BA01A901480F591F6A1F7B1FAA0CEE
:10057000BB1CCC1CDD1C97FE08C081E090E0A0E015
:10058000B0E0A82AB92ACA2ADB2A3196E032F1055E
:1005900049F0660C771C881C991C56944794379434
:1005A0002794C3CFFA85EA892B893C898B859C8562
:1005B000280F391F2E5F3F4F17C0CA0181709070FE
:1005C000892B61F016950795F794E79480E090E009
:1005D000A0E0B0E8E82AF92A0A2B1B2B769567954C
:1005E000579547952F5F3F4F77FDE7CF0CC0440FDE
:1005F000551F661F771F17FD4160EE0CFF1C001F83
:10060000111F21503040403090E0590790E06907B9
:1006100090E4790760F32B8F3C8FDB01CA018F7761
:100620009070A070B07080349105A105B10561F49F
:1006300047FD0AC0E114F1040105110529F0405CF1
:100640005F4F6F4F7F4F40781A8EFE1711F081E099
:100650008A8F4D8F5E8F6F8F78A383E0898FCE0155
:1006600049960E948304A096E2E10C944708A8E111
:10067000B0E0EDE3F3E00C94370869837A838B8371
:100680009C832D833E834F83588789E0E82EF12C8D
:10069000EC0EFD1ECE010196B7010E9458058E0199
:1006A0000F5E1F4FCE010596B8010E94580589853F
:1006B000823040F08989823028F0C701B8010E9459
:1006C000D00501C08FEF6896E6E00C945308ACE0CB
:1006D000B0E0EDE6F3E00C943B0869837A838B830A
:1006E0009C83CE010196BE016B5F7F4F0E9458052F
:1006F0008D81823061F1823050F1843021F48E811D
:10070000882351F12EC02F81388537FD20C06E819E
:100710002F3131051CF06623F9F023C08EE190E003
:10072000821B930B29853A854B855C8504C05695C1
:100730004795379527958A95D2F76623B1F050955E
:100740004095309521953F4F4F4F5F4F0EC020E0B1
:1007500030E040E050E009C02FEF3FEF4FEF5FE7A0
:1007600004C020E030E040E050E8B901CA012C9616
:10077000E2E00C945708A8E0B0E0E1ECF3E00C9460
:1007800033087B018C01611571058105910519F410
:1007900082E0898360C083E089838EE1C82ED12CFA
:1007A000DC82CB82ED82FE820F831887C801B701FD
:1007B0000E943404FC013197F7FF3BC02227332706
:1007C0002E1B3F0B57016801022E04C0D694C7941C
:1007D000B794A7940A94D2F740E050E060E070E04C
:1007E00081E090E0A0E0B0E004C0880F991FAA1F4C
:1007F000BB1F2A95D2F70197A109B1098E219F212C
:10080000A023B1230097A105B10521F041E050E0FC
:1008100060E070E04A295B296C297D294D835E8365
:100820006F8378878EE190E08E1B9F0B9C838B8378
:1008300012C0309781F00E2E04C0EE0CFF1C001F7A
:10084000111F0A94D2F7ED82FE820F831887CE1A09
:10085000DF0ADC82CB821A82CE0101960E948304D9
:100860002896EAE00C944F08EF92FF920F931F93A3
:100870007B018C0180E0E81680E0F80681E0080743
:1008800080E0180788F48FEFE816F10401051105E0
:1008900031F028F088E090E0A0E0B0E017C080E000
:1008A00090E0A0E0B0E012C080E0E81680E0F8063A
:1008B00080E0080781E0180728F088E190E0A0E0D8
:1008C000B0E004C080E190E0A0E0B0E020E230E0E1
:1008D00040E050E0281B390B4A0B5B0B04C0169517
:1008E0000795F794E7948A95D2F7F701ED5DFE4FEF
:1008F0008081281B310941095109C9011F910F91BC
:10090000FF90EF900895DF92EF92FF920F931F9365
:10091000FC01E480F58006811781D18080818230DE
:1009200048F480E090E0A0E1B0E0E82AF92A0A2B40
:100930001B2BA5C0843009F49FC0823021F4EE2423
:10094000FF24870105C0E114F1040105110519F424
:10095000E0E0F0E096C0628173819FEF6238790732
:100960000CF05BC022E83FEF261B370B2A31310524
:100970002CF020E030E040E050E02AC0B801A701B0
:10098000022E04C076956795579547950A94D2F73D
:1009900081E090E0A0E0B0E004C0880F991FAA1F9A
:1009A000BB1F2A95D2F70197A109B1098E219F217A
:1009B000A023B1230097A105B10521F081E090E0CB
:1009C000A0E0B0E09A01AB01282B392B4A2B5B2B1E
:1009D000DA01C9018F779070A070B07080349105F2
:1009E000A105B10539F427FF09C0205C3F4F4F4FE7
:1009F0005F4F04C0215C3F4F4F4F5F4FE0E0F0E09E
:100A00002030A0E03A07A0E04A07A0E45A0710F01F
:100A1000E1E0F0E079018A0127C06038710564F5F2
:100A2000FB01E158FF4FD801C7018F779070A0708C
:100A3000B07080349105A105B10539F4E7FE0DC011
:100A400080E490E0A0E0B0E004C08FE390E0A0E09C
:100A5000B0E0E80EF91E0A1F1B1F17FF05C0169510
:100A60000795F794E794319687E016950795F794E4
:100A7000E7948A95D1F705C0EE24FF248701EFEFB4
:100A8000F0E06E2F679566276795902F9F77D79434
:100A9000DD24D7948E2F8695492F462B582F5D291C
:100AA000B701CA011F910F91FF90EF90DF90089559
:100AB000FC01DB01408151812281622F6F7770E060
:100AC000221F2227221F9381892F880F822B282FF4
:100AD00030E0991F9927991F11969C931197211522
:100AE0003105A9F5411551056105710511F482E043
:100AF00037C082E89FEF13969C938E9312979A01CA
:100B0000AB0167E0220F331F441F551F6A95D1F7D1
:100B100083E08C930DC0220F331F441F551F129684
:100B20008D919C911397019713969C938E93129796
:100B3000203080E0380780E0480780E4580758F309
:100B400014962D933D934D935C93179708952F3FE3
:100B5000310579F4411551056105710519F484E0F9
:100B60008C93089564FF03C081E08C9312C01C92A3
:100B700010C02F57304013963C932E93129783E06A
:100B80008C9387E0440F551F661F771F8A95D1F716
:100B9000706414964D935D936D937C9317970895AD
:100BA0001F93DC01FB019C91923008F447C08081C7
:100BB000823008F443C0943051F411961C91843073
:100BC00099F58181682F70E0611B71093FC0843005
:100BD00021F0923031F48230B9F18181882389F19A
:100BE0002DC011961C9111978230F1F08181181758
:100BF000D9F412962D913C9113978281938182179B
:100C0000930794F028173907BCF014968D919D91A5
:100C10000D90BC91A02D24813581468157812817E4
:100C200039074A075B0718F4112341F00AC08217FD
:100C30009307A407B50740F4112319F061E070E0B1
:100C400005C06FEF7FEF02C060E070E0CB011F9145
:100C50000895582F80E0543008F081E090E066302D
:100C600008F091E0892B90E020E030E0443010F073
:100C700021E030E0822B932B892B41F513BE87B7FF
:100C80008E7F87BF513051F0513028F0523059F0EB
:100C90005330E1F40CC0C69A83B70DC04130B1F0B7
:100CA00083B7806408C0C69A83B7886004C04130A7
:100CB00069F083B7816483BF83B74295407F842BFB
:100CC00083BF83B7862B83BF81E0089580E00895BA
:100CD000662311F0A89A01C0A898A998A49AA59A89
:100CE000A69AA79AAF98AE98AD98AC9887FDAF9AA0
:100CF00086FDAE9A85FDAD9A84FDAC9AAA9A00C095
:100D0000AA98AF98AE98AD98AC9883FDAF9A82FD43
:100D1000AE9A81FDAD9A80FDAC9AAA9A00C0AA98BD
:100D2000AC9AAD9AAE9AAF9A0895882311F0A89A1A
:100D300001C0A898A99AA498A598A698A798AA9A35
:100D400000C09C9B02C080E101C080E09D99806250
:100D50009E9980649F998068AA9800C0AA9A00C052
:100D60009C9981609D9982609E9984609F9988601A
:100D7000AA98089580E00E94950687FDFBCF84E045
:100D800090E00197F1F780E00E94950608951F9387
:100D9000182F0E94BA06812F60E00E9468061F91FA
:100DA00008951F93182F0E94BA06812F61E00E94B8
:100DB00068061F910895662311F4805801C080547D
:100DC0000E94C70608950E94BA0690E0089581E047
:100DD0000E94C706089582E00E94C70608951F93E7
:100DE000182F0E94BA061A3049F4803410F080E0BF
:100DF00001C080E480580E94C70604C0812F61E0D2
:100E00000E9468061F910895CF93DF93EC0102C002
:100E10000E94EF0689918823D9F7DF91CF91089539
:100E2000CF93DF93EC0102C00E94EF06FE012196F2
:100E300084918823C9F7DF91CF9108951F93182FCC
:100E4000A09AA19AA29AA49AA59AA69AA79A80E093
:100E50009DE70197F1F7AD9AAC9AAA9A00C0AA98BB
:100E600080E097E20197F1F7AA9A00C0AA9880E87B
:100E700090E0FC013197F1F7AA9A00C0AA98FC0112
:100E80003197F1F7AC98AA9A00C0AA980197F1F7A8
:100E900088E20E94C70688E00E94C7060E94E70613
:100EA00086E00E94C706812F0E94C7061F91089501
:100EB0001F920F920FB60F9211248F939F938091E0
:100EC0002C0290912D02019690932D0280932C027A
:100ED0009F918F910F900FBE0F901F9018951F92AA
:100EE0000F920FB60F920BB60F9211242F933F93D0
:100EF0004F935F936F937F938F939F93AF93BF9322
:100F0000EF93FF9380912B02882379F410922D02A6
:100F100010922C0212BE87B7826087BF81E0809357
:100F20002B0280E280936A0017C060912C027091BE
:100F30002D0280E090E00E94BB032AE939E949EDE7
:100F40005FE30E943D020E94670070932F0260934E
:100F50002E0287B78D7F87BFFF91EF91BF91AF9131
:100F60009F918F917F916F915F914F913F912F91C1
:100F70000F900BBE0F900FBE0F901F901895CF9241
:100F8000DF92EF92FF920F931F93CF93DF938CE04A
:100F90000E941E0780E091E00E9404078B9A8C9AC1
:100FA00082E061E040E00E9429068FE481BF7894EE
:100FB00080E197E228EC30E0F9013197F1F70197F1
:100FC000D9F70E94E7068AE091E00E9404072AE12F
:100FD000C22E90E3D92E88ECE82EF12CC3E2D2E0A9
:100FE00005E111E0939A8C2D8A95F1F79398109270
:100FF0002B02D0926A0089B7846089BF88E893E1A8
:10100000F7013197F1F70197D9F700D000D000D060
:10101000EDB7FEB73196ADB7BEB71296DC93CE935F
:1010200011971383028380912E0290912F02958352
:1010300084830E9462088DB79EB706960FB6F89417
:101040009EBF0FBE8DBF80E061E00E94DB06CE0137
:101050000E940407C7CF2F923F924F925F926F92E8
:101060007F928F929F92AF92BF92CF92DF92EF9238
:10107000FF920F931F93CF93DF93CDB7DEB7CA1BB9
:10108000DB0B0FB6F894DEBF0FBECDBF09942A88E4
:10109000398848885F846E847D848C849B84AA848C
:1010A000B984C884DF80EE80FD800C811B81AA8119
:1010B000B981CE0FD11D0FB6F894DEBF0FBECDBFE4
:1010C000ED0108950F931F93DF93CF93CDB7DEB754
:1010D0002E970FB6F894DEBF0FBECDBF0D891E89C7
:1010E00086E08C831A8309838FEF9FE79E838D832D
:1010F0009E01275E3F4FCE0101966F89788DA90131
:101100000E9493082F813885020F131FF801108267
:101110002E960FB6F894DEBF0FBECDBFCF91DF91F4
:101120001F910F9108952F923F924F925F926F926D
:101130007F928F929F92AF92BF92CF92DF92EF9267
:10114000FF920F931F93DF93CF93CDB7DEB72B970B
:101150000FB6F894DEBF0FBECDBF3C012B015A0184
:10116000FC0117821682838181FD03C06FEF7FEF40
:10117000C6C19AE0892E1E010894211C311CF3017E
:101180002381F20123FD859123FF81912F01882383
:1011900009F4B2C1853239F423FD859123FF819191
:1011A0002F01853229F490E0B3010E94AF0AE7CF06
:1011B000982FFF24EE249924FFE1FF15D0F09B32F5
:1011C00069F09C3228F4903259F0933291F40EC0B9
:1011D0009D3249F0903369F441E024C052E0F52A91
:1011E00084E0F82A28C098E0F92A25C0E0E1FE2A28
:1011F00022C0F7FC29C0892F80538A3070F4F6FE94
:1012000005C0989C902C1124980E15C0E89CE02CE9
:101210001124E80EF0E2FF2A0EC09E3229F4F6FCFB
:101220006BC140E4F42A07C09C3619F450E8F52A53
:1012300002C0983649F4F20123FD959123FF919164
:101240002F01992309F0B8CF892F8554833018F0E6
:101250008052833038F444E050E0A40EB51E5FE3C2
:1012600059830FC0933631F0933779F0933509F0F5
:1012700056C020C0F5018081898342E050E0A40E71
:10128000B51E610101E010E012C0F501C080D180FF
:10129000F6FC03C06FEF7FEF02C0692D70E042E003
:1012A00050E0A40EB51EC6010E94A40A8C015FE79F
:1012B000F52214C0F501C080D180F6FC03C06FEFA9
:1012C0007FEF02C0692D70E042E050E0A40EB51E31
:1012D000C6010E94990A8C0150E8F52AF3FE07C066
:1012E0001AC080E290E0B3010E94AF0AEA948E2D0A
:1012F00090E008171907A8F30EC0F601F7FC8591D6
:10130000F7FE81916F0190E0B3010E94AF0AE110F6
:10131000EA94015010400115110579F7EAC094369E
:1013200011F0993669F5F7FE08C0F5012081318189
:101330004281538184E090E00AC0F501808191816F
:101340009C01442737FD4095542F82E090E0A80E81
:10135000B91E9FE6F92257FF09C050954095309578
:1013600021953F4F4F4F5F4FE0E8FE2ACA01B90178
:10137000A1012AE030E00E94DB0AD82ED21840C03A
:10138000953729F41F2D1F7E2AE030E01DC01F2D48
:10139000197F9F3661F0903720F4983509F0ACC082
:1013A0000FC0903739F0983709F0A6C004C028E084
:1013B00030E00AC0106114FD146020E130E004C088
:1013C00014FD166020E132E017FF08C0F5016081CE
:1013D00071818281938144E050E008C0F5018081F1
:1013E0009181BC0180E090E042E050E0A40EB51E87
:1013F000A1010E94DB0AD82ED2188FE7F82EF12225
:10140000F6FE0BC05EEFF522D91438F4F4FE07C0E7
:10141000F2FC05C08FEEF82202C01D2D01C0192D6F
:10142000F4FE0DC0FE01ED0DF11D8081803319F435
:1014300099EEF92208C01F5FF2FE05C003C08F2D90
:10144000867809F01F5F0F2DF3FC14C0F0FE0FC06B
:101450001E1510F09D2C0BC09D2C9E0C911A1E2D5C
:1014600006C080E290E0B3010E94AF0A1F5F1E1524
:10147000C0F304C01E1510F4E11A01C0EE2404FFED
:101480000FC080E390E0B3010E94AF0A02FF1DC0CD
:1014900001FD03C088E790E00EC088E590E00BC036
:1014A000802F867891F001FF02C08BE201C080E2BC
:1014B000F7FC8DE290E0B3010E94AF0A06C080E322
:1014C00090E0B3010E94AF0A9A94D914C0F3DA9461
:1014D000F101ED0DF11D808190E0B3010E94AF0A92
:1014E000DD20A9F706C080E290E0B3010E94AF0AB8
:1014F000EA94EE20C1F743CEF30166817781CB01F8
:101500002B960FB6F894DEBF0FBECDBFCF91DF9103
:101510001F910F91FF90EF90DF90CF90BF90AF9011
:101520009F908F907F906F905F904F903F902F9003
:101530000895FC010590615070400110D8F7809526
:1015400090958E0F9F1F0895FC016150704001908F
:101550000110D8F7809590958E0F9F1F08950F93D7
:101560001F93CF93DF938C01EB018B8181FF1BC015
:1015700082FF0DC02E813F818C819D812817390704
:1015800064F4E881F9810193F983E88306C0E88572
:10159000F985802F0995892B31F48E819F810196E1
:1015A0009F838E8302C00FEF1FEFC801DF91CF91A1
:1015B0001F910F910895FA01AA27283051F1203187
:1015C00081F1E8946F936E7F6E5F7F4F8F4F9F4FD7
:1015D000AF4FB1E03ED0B4E03CD0670F781F891F19
:1015E0009A1FA11D680F791F8A1F911DA11D6A0FE7
:1015F000711D811D911DA11D20D009F468943F919A
:101600002AE0269F11243019305D3193DEF6CF0198
:101610000895462F4770405D4193B3E00FD0C9F75E
:10162000F6CF462F4F70405D4A3318F0495D31FDCB
:101630004052419302D0A9F7EACFB4E0A69597951E
:10164000879577956795BA95C9F7009761057105F4
:1016500008959B01AC010A2E06945795479537953E
:101660002795BA95C9F7620F731F841F951FA01D98
:061670000895F894FFCF7D
:10167600494E494349414E444F00545035202D2090
:10168600454A3220002534646D6D000000000000DC
:10169600000000000102020303030304040404041F
:1016A60004040405050505050505050505050505E7
:1016B60005050506060606060606060606060606C7
:1016C60006060606060606060606060606060606B4
:1016D6000606060707070707070707070707070797
:1016E6000707070707070707070707070707070784
:1016F6000707070707070707070707070707070774
:101706000707070707070707070707070707070763
:101716000707070808080808080808080808080846
:101726000808080808080808080808080808080833
:101736000808080808080808080808080808080823
:101746000808080808080808080808080808080813
:101756000808080808080808080808080808080803
:1017660008080808080808080808080808080808F3
:1017760008080808080808080808080808080808E3
:1017860008080808080808080808080808080808D3
:0A179600080808333030306D6D0094
:00000001FF
