:100000000C9446000C9465000C9465000C946500FB
:100010000C9465000C9465000C94E1030C942E0381
:100020000C948F020C9465000C9465000C94650090
:100030000C9465000C9465000C9465000C941402FB
:100040000C94A6000C9465000C9465000C9465005B
:100050000C9465000C9465000C9465000C9465008C
:100060000C9465000C9465000C9465000C9465007C
:100070000C9465000C9465000C9465000C9465006C
:100080000C9465000C9465000C94650011241FBE4F
:10009000CFEFD0E1DEBFCDBF11E0A0E0B1E0EEEFE9
:1000A000FAE000E00BBF02C007900D92AE32B1073C
:1000B000D9F711E0AEE2B1E001C01D92AB33B10758
:1000C000E1F70E94CB010C947D050C940000582FA1
:1000D00080E0543008F081E090E0663008F091E074
:1000E000892B90E020E030E0443010F021E030E057
:1000F000822B932B892B41F513BE87B78E7F87BF49
:10010000513051F0513028F0523059F05330E1F471
:100110000CC0C69A83B70DC04130B1F083B780647C
:1001200008C0C69A83B7886004C0413069F083B7BD
:10013000816483BF83B74295407F842B83BF83B79D
:10014000862B83BF81E0089580E008951F920F926F
:100150000FB60F9211240F900FBE0F901F9018959D
:10016000662311F0A89A01C0A898A998A49AA59A04
:10017000A69AA79AAF98AE98AD98AC9887FDAF9A1B
:1001800086FDAE9A85FDAD9A84FDAC9AAA9A00C010
:10019000AA98AF98AE98AD98AC9883FDAF9A82FDBF
:1001A000AE9A81FDAD9A80FDAC9AAA9A00C0AA9839
:1001B000AC9AAD9AAE9AAF9A0895882311F0A89A96
:1001C00001C0A898A99AA498A598A698A798AA9AB1
:1001D00000C09C9B02C080E101C080E09D998062CC
:1001E0009E9980649F998068AA9800C0AA9A00C0CE
:1001F0009C9981609D9982609E9984609F99886096
:10020000AA98089580E00E94DD0087FDFBCF84E07E
:1002100090E00197F1F780E00E94DD0008951F93C0
:10022000182F0E940201812F60E00E94B0001F91F0
:1002300008951F93182F0E940201812F61E00E94F0
:10024000B0001F910895662311F4805801C08054B6
:100250000E940F0108950E94020190E0089581E03C
:100260000E940F01089582E00E940F0108951F93DC
:10027000182F0E940201812F61E00E94B0001F919F
:1002800008951F93182F0E9402011A3049F48034F8
:1002900010F080E001C080E480580E940F0104C08B
:1002A000812F61E00E94B0001F910895CF93DF93EA
:1002B000EC0102C00E94410189918823D9F7DF91A6
:1002C000CF910895CF93DF93EC0102C00E944101CA
:1002D000FE01219684918823C9F7DF91CF9108957B
:1002E0001F93182FA09AA19AA29AA49AA59AA69AA7
:1002F000A79A80E09DE70197F1F7AD9AAC9AAA9A88
:1003000000C0AA9880E097E20197F1F7AA9A00C08E
:10031000AA9880E890E0FC013197F1F7AA9A00C012
:10032000AA98FC013197F1F7AC98AA9A00C0AA9854
:100330000197F1F788E20E940F0188E00E940F0107
:100340000E942F0186E00E940F01812F0E940F0161
:100350001F9108950F931F93CF93DF938B018830E4
:1003600090F4880F880F880F805C0E940F01C0E016
:10037000D0E0F801EC0FFD1F80810E94370121962B
:10038000C830D105B1F780E80E940F01DF91CF910D
:100390001F910F9108958CE00E94700189B78062CF
:1003A00089BF8AB788608ABF8AB78B7F8ABF89B7BF
:1003B000806489BF8AB780628ABF8AB78F7E8ABF0E
:1003C00089B7806889BF8AB780688ABF8AB78F7B00
:1003D0008ABF80E065E171E00E94AA0181E06DE1E1
:1003E00071E00E94AA0182E065E271E00E94AA0128
:1003F00080E00E944101809113019091140160916D
:10040000390170913A010E94230181E00E9441016B
:1004100082E064E041E00E9467008AEF81BF87B715
:10042000826087BF7894FFCF1F920F920FB60F9212
:100430000BB60F9211240F931F932F933F934F935B
:100440005F936F937F938F939F93AF93BF93EF933C
:10045000FF93809137019091380101969093380174
:10046000809337018091370190913801843691054E
:1004700009F040C010923801109237010E94110516
:100480008C010E941105FC01C80160E170E00E942E
:100490008F049093140180931301CF0162E070E008
:1004A0000E948F0490933A01809339010E942F019A
:1004B00080912F0190913001609131017091320152
:1004C0000E9423018091350190913601892B11F40E
:1004D00080E001C082E00E9441018091130190916F
:1004E00014016091390170913A010E94230181E069
:1004F0000E944101FF91EF91BF91AF919F918F9128
:100500007F916F915F914F913F912F911F910F912B
:100510000F900BBE0F900FBE0F901F9018951F925B
:100520000F920FB60F920BB60F9211242F933F9399
:100530004F935F936F937F938F939F93AF93BF93EB
:10054000EF93FF9380913301909134010197C1F4AF
:1005500010923401109233010E94110560E170E0A5
:100560000E948F0490931401809313010E9411053F
:1005700062E070E00E948F0490933A018093390109
:100580008091310190913201019729F4109232014A
:100590001092310106C081E090E090933201809387
:1005A00031010E942F0120912F0130913001809163
:1005B00013019091140128173907D9F420913101C2
:1005C000309132018091390190913A012817390711
:1005D00081F40E942F0180E091E00E9456018091F9
:1005E000330190913401019690933401809333014B
:1005F00022C080912F019091300160913101709162
:1006000032010E9423018091350190913601892B9E
:1006100011F480E001C082E00E9441018091130149
:10062000909114016091390170913A010E94230167
:1006300081E00E944101FF91EF91BF91AF919F91A5
:100640008F917F916F915F914F913F912F910F907B
:100650000BBE0F900FBE0F901F9018951F920F9218
:100660000FB60F920BB60F9211242F933F934F9317
:100670005F936F937F938F939F93AF93BF93EF930A
:10068000FF930E942F0180912F0190913001892BBF
:1006900041F180912F0190913001019790933001A9
:1006A00080932F018091330190913401019781F55E
:1006B00010923401109233010E94110560E170E044
:1006C0000E948F0490931401809313010E941105DE
:1006D00062E070E00E948F0490933A0180933901A8
:1006E00017C08091310190913201892B39F481E05A
:1006F00090E0909332018093310104C01092320156
:100700001092310180E190E09093300180932F01AD
:1007100020912F01309130018091130190911401AB
:1007200028173907D9F42091310130913201809195
:10073000390190913A012817390781F40E942F015D
:1007400080E091E00E945601809133019091340144
:100750000196909334018093330120C080912F0142
:100760009091300160913101709132010E9423011A
:1007700082E00E94410181E090E0909336018093F5
:1007800035018091130190911401609139017091AC
:100790003A010E94230181E00E944101FF91EF9103
:1007A000BF91AF919F918F917F916F915F914F9189
:1007B0003F912F910F900BBE0F900FBE0F901F9087
:1007C00018951F920F920FB60F920BB60F9211242D
:1007D0002F933F934F935F936F937F938F939F9349
:1007E000AF93BF93EF93FF930E942F0180912F014E
:1007F0009091300101969093300180932F01809168
:100800003301909134010197C1F410923401109298
:1008100033010E94110560E170E00E948F04909303
:100820001401809313010E94110562E070E00E94A0
:100830008F0490933A018093390180912F01909118
:1008400030010F97A9F48091310190913201892BE9
:1008500039F481E090E0909332018093310104C03B
:1008600010923201109231011092300110922F013A
:1008700020912F013091300180911301909114014A
:1008800028173907D9F42091310130913201809134
:10089000390190913A012817390781F40E942F01FC
:1008A00080E091E00E9456018091330190913401E3
:1008B000019690933401809333011EC080912F01E3
:1008C0009091300160913101709132010E942301B9
:1008D00080E00E9441011092360110923501809112
:1008E0001301909114016091390170913A010E94B5
:1008F000230181E00E944101FF91EF91BF91AF91EF
:100900009F918F917F916F915F914F913F912F9127
:100910000F900BBE0F900FBE0F901F90189597FB76
:10092000092E07260AD077FD04D00CD006D000206F
:100930001AF4709561957F4F0895F6F7909581951B
:100940009F4F0895AA1BBB1B51E107C0AA1FBB1FE5
:10095000A617B70710F0A61BB70B881F991F5A954B
:10096000A9F780959095BC01CD010895AF92BF92F3
:10097000CF92DF92EF92FF920F931F93CF93DF936B
:10098000EC01A880B980CA80DB80A114B104C10445
:10099000D10441F484E2A82E89EDB82E8BE5C82E4F
:1009A00087E0D82EC601B5012DE133EF41E050E0DC
:1009B0000E94400527EA31E440E050E00E94210512
:1009C0007B018C01C601B5012DE133EF41E050E020
:1009D0000E944005CA01B9012CEE34EF4FEF5FEFE2
:1009E0000E9421056E0D7F1D801F911F97FF04C07F
:1009F0006150704080409048688379838A839B83EC
:100A00009B013F77C901DF91CF911F910F91FF901B
:100A1000EF90DF90CF90BF90AF9008950E94B60402
:100A200008958FE091E00E94B6040895A0E0B0E040
:100A300080930F0190931001A0931101B0931201C4
:100A40000895629FD001739FF001829FE00DF11D18
:100A5000649FE00DF11D929FF00D839FF00D749F38
:100A6000F00D659FF00D9927729FB00DE11DF91FE4
:100A7000639FB00DE11DF91FBD01CF011124089541
:100A800097FB092E05260ED057FD04D014D00AD0AE
:100A9000001C38F450954095309521953F4F4F4FAD
:100AA0005F4F0895F6F790958095709561957F4F0B
:100AB0008F4F9F4F0895A1E21A2EAA1BBB1BFD0169
:100AC0000DC0AA1FBB1FEE1FFF1FA217B307E4072D
:100AD000F50720F0A21BB30BE40BF50B661F771F85
:100AE000881F991F1A9469F7609570958095909565
:0E0AF0009B01AC01BD01CF010895F894FFCF2A
:100AFE0020202020594F552057494E2020200001FC
:100B0E000000000C00000F1A1C1E0F00000E1F1517
:0E0B1E001F111F1500001E0B070F1E00000008
:00000001FF
