:100000000C9446000C945D000C945D000C945D0013
:100010000C945D000C945D000C945F000C947300D4
:100020000C9481000C945D000C945D000C945D00B8
:100030000C945D000C945D000C945D000C945D00CC
:100040000C945D000C945D000C945D000C945D00BC
:100050000C945D000C945D000C945D000C945D00AC
:100060000C945D000C945D000C945D000C945D009C
:100070000C945D000C945D000C945D000C945D008C
:100080000C945D000C945D000C945D0011241FBE67
:10009000CFEFD0E1DEBFCDBF11E0A0E0B1E0EEE6F2
:1000A000F1E000E00BBF02C007900D92A030B10755
:1000B000D9F70E9495000C94B5000C9400001F9293
:1000C0000F920FB60F9211248F9381B78E3020F0CC
:1000D00081B78D5081BF01C011BE8F910F900FBEAF
:1000E0000F901F9018951F920F920FB60F92112428
:1000F0008F938FE781BF8F910F900FBE0F901F904E
:1001000018951F920F920FB60F9211248F9381B7FB
:10011000823F18F481B7835F01C08FEF81BF8F9159
:100120000F900FBE0F901F90189581B3806981BB0F
:10013000BC9A949A979A12B883B78B6683BF8FE75D
:1001400081BF8AB780688ABF89B7806889BF8AB74C
:1001500080628ABF89B7806489BF8AB788608ABF96
:0E01600089B7806289BF7894FFCFF894FFCFF3
:00000001FF
