:100000000C9446100C945D100C945D100C945D10D3
:100010000C945D100C945F100C9491100C94C31010
:100020000C94F5100C945D100C945D100C945D1004
:100030000C945D100C945D100C945D100C945D108C
:100040000C945D100C945D100C945D100C945D107C
:100050000C945D100C945D100C945D100C945D106C
:100060000C945D100C945D100C945D100C945D105C
:100070000C945D100C945D100C945D100C945D104C
:100080000C945D100C945D100C945D100000000049
:100090000000000000000000000000000000000060
:1000A000000000000000000000000001000000004F
:1000B00000000000000000000000000240000000FE
:1000C000000000000000000000000004200000000C
:1000D0000000000000000000000000081000000008
:1000E00000000000000000000000001008000000F8
:1000F000F000000000000000000000200400000FDD
:10010000FF00000000000000000000400200003F6F
:10011000FFC000000000000000000080010000FFA0
:10012000FFF000000000000000000100008003FF5D
:10013000FFF800000000000000000200004007FF80
:10014000FFFC0000000000000000040000201FFF72
:10015000FFFE00000000000003F0080000103FFF59
:10016000FFFF0000000000000FFF100000087FFFED
:10017000FFFF0000000000003FFFE0000004FFFF61
:10018000FFFF800000000000FFFFE0000003FFFF12
:10019000FFFF800000000001FFFFF8000003FFFFE9
:1001A000FFFFC00000000003FFFFFC000007FFFF8F
:1001B000FFFFC00000000007FFFFFE00000FFFFF71
:1001C000FFFFC0000000000FFFFFFF00000FFFFF58
:1001D000FFFFC0000000001FFFFFFF80001FFFFFA8
:1001E000FFFFE0000000001FFFFFFFC0001FFFFF38
:1001F000FFFFE0000000001FFFFFFFE0003FFFFFE8
:10020000FFFFE0000000003FFFFFFFE0003FFFFFB7
:10021000FFFFE0000000003FFFFFFFF0007FFFFF57
:10022000FFFFE0000000007FFFFFFFF0007FFFFF07
:10023000FFFFE0000000007FFFFFFFF0007FFFFFF7
:10024000FFFFE0000000007FFFFFFFF800FFFFFF5F
:10025000FFFFE000000000FFFFFFFFF800FFFFFFCF
:10026000FFFFC001C00000FFFFFFFFF800FFFFFF1E
:10027000FFFFC01BF80000FFFFFFFFFC00FFFFFFB8
:10028000FFFFC03BFC0000FFFFFFFFFC01FFFFFF83
:10029000FFFFC1FBFF0000FFFFFFFFFC01FFFFFFAF
:1002A000FFFF83FBFF8000FFFFFFFFFC01FFFFFF5D
:1002B000FFFF87FBFF8000FFFFFFFFFE01FFFFFF47
:1002C000FFFF87F03FC000FFFFFFFFFE01FFFFFFC2
:1002D000FFFF1FC00FCFC0FFFFFFFFFE01FFFFFFAB
:1002E000FFFFFF8007FFFCFFFFFFFFFE01FFFFFF97
:1002F000FFFFFE0003FFFEFFFFFFFFFE01FFFFFF0A
:10030000FFFFFC0001FFFFFFFFFFFFFE00FFFFFFFD
:10031000FFFFF80001FE3FFFFFFFFFFE00FFFFFFB2
:10032000FFFFF00000F80FFFFFFFFFFE00FFFFFFE1
:10033000FFFFE00000F007FFFFFFFFFC00FFFFFFF3
:10034000FFFFC000007007FFFFFFFFFC007FFFFF03
:10035000FFFF8000006009FFFFFFFFFC003FFFFF81
:10036000FFFF8000000010FFFFFFFFFC003FFFFFCA
:10037000FFFF80000000207FFFFFFFF8001FFFFF4E
:10038000FFFF00000000407FFFFFFFF8001FFFFF9E
:10039000FFFF0000E000803FFFFFFFF00007FFFFCE
:1003A000FFFF0001F001001FFFFFFFF00003FFFF50
:1003B000FFFE80031802001FFFFFFFF00000FFFF99
:1003C000FFFC40021804001FFFFFFFE000003FFD9C
:1003D000FFFC200A180F001FFFFFFFC000000003F2
:1003E000FFF810080C1B800FFFFFFFC00000000388
:1003F000FFF808180C31800FFFFFFF000000000716
:10040000FFF804180C70800FFFFFFE0000000007CB
:10041000FFF002180CF0C007FFFFFC00001C000FEB
:10042000FFF001100D60C007FFFFF800001F000F74
:10043000FFF000900660C007FBFFF0000013801F74
:10044000FFF0007004E06007F81E00000011C01FFC
:10045000FFF000300CC06007FC0000000018F01F27
:10046000FFF0003014C06003FC00000000187C1F87
:10047000FFF0003864C06003FC00000000181F3F5C
:10048000FFF0003084C06003FC00000000180F3F44
:10049000FFF000230CC06003FC0000000018013FC7
:1004A000FFF000030C806003FC0000000008003F28
:1004B000FFF0001A8D806003FC00000000000000C7
:1004C000000000000000000000000000000C007FA1
:1004D000FFF0001BAD706003FC000000000C007F0B
:1004E000FFF0003B9CF86003FC0000000006007F6A
:1004F000FFF0005B98F84007FC0000000006007F5A
:10050000FFF0009B84FCC007FC0000000002007F9D
:1005100083F0011BB2FCC007FC0000000003007C5C
:1005200000F0020BFFFC8007FC00000000010078D7
:100530000030047B87F8800FFC01FE000001807012
:10054000000009E07E5E000FFCFFFE00000080203E
:1005500000001303FFE7000FFCFC04000000800014
:100560000000260BFFF1800FFC000C000000C00013
:100570000000401BFFF8C01FFC000C000000E180E1
:100580000000803BFFFC401FFC0018000000718051
:100590000001003BFFFE001FFC0030000000318026
:1005A0000002007BFFFF0001FC00600000001980DA
:1005B00003E4007BFFFF8000FC00C00000001D8002
:1005C0000F88007BFFFF40007800C00000000D8016
:1005D0001C10003BFFFF200038018000000004C019
:1005E00039A0003BFFFF100010070000000000C012
:1005F00061C0001BFFFE0800000E0000000000C0EC
:1006000000C0000BFFFC04000C1C00000000006098
:1006100001600003FFF802000C38000000000060D9
:1006200002700000FFE001000C70000000000030CC
:1006300004380000000000F80CE00000000000306A
:10064000081C00000000004C1C8000000000001886
:10065000101E0000000000E4180000000000001858
:10066000200F8000000001D6180000000000000CE0
:10067000400FC00000000308380000000000000622
:100680008007F00000000E043000000000000007AA
:100690000007FE0000007C02600000000000000374
:1006A0008007CFC00001E001C0000000000000048E
:1006B000C083C3F8001F8000800000000000000815
:1006C000E0C3C1FBFFFC0001C000000000000010FF
:1006D0007063E1FBFFE080032000000000000020C9
:1006E0001C7071FBFFE1800E100000000000004054
:1006F0000730B0FBFFE30018080000000000008096
:100700000391BE7BFFE300700400000000000100C5
:1007100000999E3BFFE600E002000000000002009E
:100720000018801BFFFC0380010000000000040093
:10073000000CC0083FB81E00008000000000080048
:100740000006C0000F1078000040000000001000FC
:10075000000660000471C0000020000000002000BE
:100760000003700011C200000010000000004000F3
:100770000003B8007F800000000800000000800037
:1007800000019C00EE0000000004000000010000D9
:100790000001CFFBFC00000000020000000200008E
:1007A0000000F3FAF0000000000100000004000067
:1007B00000007803E0000000000080000008000056
:1007C00000003F1B800000000000400000100000FF
:1007D00000000FFA000000000000200000200000D0
:1007E00000000000000000000000100000400000B9
:1007F0000000000000000000000008000080000071
:1008000000000000000000000000040001000000E3
:1008100000000000000000000000020002000000D4
:1008200000000000000000000000010004000000C3
:100830000000000000000000000000800800000030
:100840000000000000000000000000400000000068
:100850000000000000000000000000200000000078
:100860000000000000000000000000000000000088
:100870000000000000000000000000000000000078
:100880000000000000000000000000000800000060
:100890000006000000000C00000000000400000042
:1008A0000006000000001C00000000010200000023
:1008B0000007000000001C00000000020100000012
:1008C0000003000000003800000000040080000069
:1008D0000003800000003800000000080040000015
:1008E00000018000000070000000001000200000E7
:1008F0000001C00000007000000000200010000097
:100900000000C0000000E0000000004000080000FF
:100910000000E03BFF80E0000000008000040000D9
:100920000000E3FBFFF0C000000001000002000037
:1009300000007FFBFFFFC00000000200000100007C
:1009400000007FFBFFFF800000000400000080002B
:100950000000FFFBFFFFC000000008000000400097
:100960000001FFFBFFFFF00000001000000020006E
:100970000003FFFBFFFFF800000020000000100054
:10098000000FFFFBFFFFFC0000004000000008001C
:10099000001FFFFBFFFFFF000000800000000400BD
:1009A000003FFFFBFFFFFF8000010000000002008E
:1009B000007FFFFBFFFFFF8000020000000001003E
:1009C00000FFFFFBFFFFFFC00004000000000080ED
:1009D00000FFFFFBFFFFFFE00008000000000040F9
:1009E00001FFFFFBFFFFFFF00010000000000020F0
:1009F00003FFCFFBFFFE7FF000200000000000108F
:100A000003FF87FBFFFC3FF80040000000000008E8
:100A100007FF87FBFFFC3FFC008000000000000494
:100A200007FF87FBFFFC3FFC010000000000000205
:100A30000FFFCFFBFFFE7FFE020000000000000161
:100A40000FFFFFFBFFFFFFFE04000000000000009F
:100A50009FFFFFFBFFFFFFFE0800000000000000FB
:100A60005FFFFFFBFFFFFFFF100000000000000022
:100A70003FFFFFFBFFFFFFFF200000000000000022
:100A80003FFFFFFBFFFFFFFF4000000000000000F2
:100A90003FFFFFFBFFFFFFFF8000000000000000A2
:100AA0003FFFFFFBFFFFFFFF800000000000000092
:100AB0003FFFFFFBFFFFFFFF800000000000000082
:100AC0003FFFFFFBFFFFFFFF800000000000000072
:100AD0007FFFFFFBFFFFFFFF800000000000000022
:100AE0007FFFFFFBFFFFFFFF800000000000000012
:100AF0007FFFFFFBFFFFFFFF800000000000000002
:100B00007FFFFFFBFFFFFFFF8000000000000000F1
:100B10007FFFFFFBFFFFFFFF80000000000001C020
:100B200000080000000000800070000000000FF0CE
:100B3000000400000000010001FE000000001FF89A
:100B40007FFFFFFBFFFFFFFF87FE000000003FFC71
:100B50007FFFFFFBFFFFFFFF87FF800000003FFEDE
:100B60007FFFFFFBFFFFFFFF8FFF800000007FFE86
:100B70007FFFFFFBFFFFFFFF8FFF800000007FFE76
:100B80007FFFFFFBFFFFFFFF9FFF800000007FFE56
:100B90007FFFFFFBFFFFFFFF9FFF800000007FFE46
:100BA0007FFFFFFBFFFFFFFF9FFF800000007FFE36
:100BB0007FFFFFFBFFFFFFFF9FFF800000007FFE26
:100BC0007FFFFFFBFFFFFFFF9FFF800000007FFE16
:100BD0007FFFFFFBFFFFFFFF9FFF800000007FFE06
:100BE0007FFFFFFBFFFFFFFF9FFF800000007FFEF6
:100BF0007FFFFFFBFFFFFFFF9FFF800000007FFEE6
:100C00007FFFFFFBFFFFFFFF9FFF800000007FFED5
:100C10007FFFFFFBFFFFFFFF9FFF800000007FFEC5
:100C20007FFFFFFBFFFFFFFF9FFF800000007FFEB5
:100C30007FFFFFFBFFFFFFFF9FFF800000007FFEA5
:100C40007FFFFFFBFFFFFFFF9FFF800000007FFE95
:100C50007FFFFFFBFFFFFFFF9FFF800000007FFE85
:100C60007FFFFFFBFFFFFFFF9FFF800000007FFE75
:100C70007FFFFFFBFFFFFFFF9FFF800000007FFE65
:100C80007FFFFFFBFFFFFFFF9FFF800000000000D2
:100C900000000000000000000000000000007FFED7
:100CA0007FFFFFFBFFFFFFFF9FFF800000007FFE35
:100CB0007FFFFFFBFFFFFFFF9FFF800000007FFE25
:100CC0007FFFFFFBFFFFFFFF9FFF800000007FFE15
:100CD0007FFFFFFBFFFFFFFF9FFF800000007FFE05
:100CE0007FFFFFFBFFFFFFFF9FFF800000007FFEF5
:100CF0007FFFFFFBFFFFFFFF9FFF800000007FFEE5
:100D00007FFFFFFBFFFFFFFF9FFF800000007FFED4
:100D10007FFFFFFBFFFFFFFF9FFF800000007FFEC4
:100D20007FFFFFFBFFFFFFFF9FFF800000007FFEB4
:100D30007FFFFFFBFFFFFFFF9FFF800000007FFEA4
:100D40007FFFFFFBFFFFFFFF9FFF800000007FFE94
:100D50007FFFFFFBFFFFFFFF9FFF800000007FFE84
:100D60007FFFFFFBFFFFFFFF9FFF800000007FFE74
:100D70007FFFFFFBFFFFFFFF9FFF800000007FFE64
:100D80007FFFFFFBFFFFFFFF9FFF800000007FFE54
:100D90007FFFFFFBFFFFFFFF9FFF800000007FFE44
:100DA0007FFFFFFBFFFFFFFF9FFF800000007FFE34
:100DB0007FFFFFFBFFFFFFFF9FFF800000007FFE24
:100DC0007FFFFFFBFFFFFFFF9FFF800000007FFE14
:100DD0007FFFFFFBFFFFFFFF9FFF800000007FFE04
:100DE0007FFFFFFBFFFFFFFF8FFF800000007FFE04
:100DF0007FFFFFFBFFFFFFFF8FFF800000003FFE34
:100E00007FFFFFFBFFFFFFFF8FFF800000003FFC25
:100E10007FFFFFFBFFFFFFFF87FF000000001FF8C1
:100E20007FFFFFFBFFFFFFFF87FE0000000007F0D2
:100E30007FFFFFFBFFFFFFFF81FC000000000000C1
:100E40007FFFFFFBFFFFFFFF8000000000000000AE
:100E50007FFFFFFBFFFFFFFF80000000000000009E
:100E60007FFFFFFBFFFFFFFF80000000000000008E
:100E70007FFFFFFBFFFFFFFF80000000000000007E
:100E80007FFFFFFBFFFFFFFFC0000000000000002E
:100E90003FFFFFFBFFFFFFFFA0000000000000007E
:100EA0007FFFFFFBFFFFFFFF90000000000000003E
:100EB000BFFFFFFBFFFFFFFF8800000000000001F5
:100EC0001FFFFFFBFFFFFFFF040000000000000208
:100ED0001FFFFFFBFFFFFFFE0200000000000004F9
:100EE0000FFFFFFBFFFFFFFC0100000000000008F8
:100EF00007FFFFFBFFFFFFF800800000000000106D
:100F000000FFFFFBFFFFFFE00040000000000020AB
:100F10000003FFF803FFF80000200000000000407D
:100F20000003FFF803FFF80000100000000000803D
:100F30000003FFF803FFF8000008000000000100B4
:100F40000003FFF803FFF8000004000000000200A7
:100F50000003FFF803FFF800000200000000040097
:100F60000003FFF803FFF800000100000000080084
:100F70000003FFF803FFF8000000800000001000ED
:100F80000003FFF803FFF80000004000000020000D
:100F90000003FFF803FFF8000000200000004000FD
:100FA0000003FFF803FFF8000000100000008000BD
:100FB0000003FFF803FFF800000008000001000034
:100FC0000003FFF803FFF800000004000002000027
:100FD0000003FFF803FFF800000002000004000017
:100FE0000003FFF803FFF800000001000008000004
:100FF0000003FFF803FFF80000000080001000006D
:101000000003FFF803FFF80000000040002000008C
:101010000003FFF803FFF80000000020004000007C
:101020000003FFF803FFF000000000100080000044
:101030000003FFF803FFF0000000000801000000BB
:101040000001FFF003FFF0000000000402000000B8
:101050000001FFF001FFF0000000000204000000AA
:101060000000FFF001FFE0000000000000000000B1
:101070000000FFE000FFC0000000000000000000D2
:1010800000007FC0007FC00000000000007FFFFF65
:10109000FFFFFFFFFFFFFFFFFFFFFE0100FFFFFF5E
:1010A000FFFFFFFFFFFFFFFFFFFFFF8223FFFFFFA9
:1010B000FFFFFFFFFFFFFFFFFFFFFFE41FFFFFFF3B
:1010C000FFFFFFEFFFFFFFFFFFFFFFF81FFFFFFF27
:1010D000FFFFFFEFFFFFFFFFFFFFFFF83FFFFFFFF7
:1010E000FFFFFFEFFFFFFFFFFFFFFFFC3FFFFFFFE3
:1010F000FFFFFFEFFFFFFFFFFFFFFFFE3FFFFFFFD1
:10110000FFFFFFEFFFFFFFFFFFFFFFFE7FFFFFFF80
:10111000FFFFFFEFFFFFFFFFFFFFFFFFFFFFFFFFEF
:10112000FFFFFFEFFFFFFFFFFFFFFFFFFFFFFFFFDF
:10113000FFFFFFEFFFFFFFFFFFFFFFFFFFFFFFFFCF
:10114000FFFFFFEFFFFFFFFFFFFFFFFFFFFFFFFFBF
:10115000C3FE1FEFFFFFFFFFFFFFFFFFFFFFFFFFCC
:10116000C3FE3FEFFFFFFFFFFFFFFFFFFFFFFFFF9C
:10117000E3FC3FEFFFFFFFFFFFFFFFFFFFFFFFFF6E
:10118000E1FC3FEFFFFFFFFFFFFFFFFFFFFFFFFF60
:10119000E1FC3FEFFFFFFFFFFFFFFFFFFFFFFFFF50
:1011A000E1FC3FEFFFFFFFFFFFFFFFFFFFFFFFFF40
:1011B000E0F87FEFFFFFFFFFFFFFFFFFFFFFFFFFF5
:1011C000F0F87FEFFFFFFFFFFFFFFFFFFFFFFFFFD5
:1011D000F0F87FEFFFFFFFFFFFFFFFFFFFFFFFFFC5
:1011E000F878FFEFFFFFFFFFFFFFFFFFFFFFFFFFAD
:1011F000F878FFE1FFC0F81FFFFFFFFFFFFFFFFFD1
:10120000F870FF007FC0F81FFFFFFFFFFFFFFFFF29
:10121000F830FE001FC0F81FFFFFFFFFFFFFFFFFBA
:10122000FC31FC0C1FC0F81FFFFFFFFFFFFFFFFF9B
:10123000FC21FC0E0FC0F81FFFFFFFFFFFFFFFFFA9
:10124000FC21FC2E0FC0F81FFFFFFFFFFFFFFFFF79
:10125000FC01F82E07C0F81FFFFFFFFFFFFFFFFF95
:10126000FE01F82E07C0F81FFFFFFFFFFFFFFFFF83
:10127000FE03F82E07C0F81FFFFFFFFFFFFFFFFF71
:10128000FF03F82E07C0F81FFFFFFFFFFFFFFFFF60
:10129000FF03F82E07C0F81FFFFFFFFFFFFFFFFF50
:1012A000FF07F82E07C0F81FFFFFFFFFFFFFFFFF3C
:1012B000FF07F82E07C0F81FFFFFFFFFFFFFFFFF2C
:1012C000FF07F82E07C0F81FFFFFFFFFFFFFFFFF1C
:1012D000FF07F82E07C0F81FFFFFFFFFFFFFFFFF0C
:1012E000FF07F82E07C0F83FFFFFFFFFFFFFFFFFDC
:1012F000FF07F82E07C0F85FFFFFFFFFFFFFFFFFAC
:10130000FF07F82E07C0F89FFFFFFFFFFFFFFFFF5B
:10131000FF07F82E07C0F91FFFFFFFFFFFFFFFFFCA
:10132000FF87F82E07C0FA1FFFFFFFFFFFFFFFFF39
:10133000FF47F82E07C0FC1FFFFFFFFFFFFFFFFF67
:10134000FF27F82E07C0F81FFFFFFFFFFFFFFFFF7B
:10135000FF17F82E07C0F81FFFFFFFFFFFFFFFFF7B
:10136000FF0FF82E07C0F81FFFFFFFFFFFFFFFFF73
:10137000FF07F80E0FC0781FFFFFFFFFFFFFFFFF03
:10138000FF07FC0E0FC0F01FFFFFFFFFFFFFFFFF77
:10139000FF07FC0C1FE1001FFFFFFFFFFFFFFFFF28
:1013A000FF07FE001FE2381FFFFFFFFFFFFFFFFFE9
:1013B000FF07FF007FF4781FFFFFFFFFFFFFFFFF26
:1013C000FFFFFFC0FFF8FFFFFFFFFFFFFFFFFFFF73
:1013D000FFFFFFEFFFFFFFFFFFFFFFFFFFFFFFFF2D
:1013E000FFFFFFEFFFFFFFFFFFFFFFFFFFFFFFFE1E
:1013F00000000400004000007FFFFFFFFFFFFFF838
:1014000000000200008000000FFFFFFFFFFFFFC091
:10141000000001000100000001FFFFFFFFFFFF00CF
:101420000000008002000000007FFFFFFFFFFE00C1
:101430000000004004000000007FFFFFFFFFFC00F1
:101440000000002008000000003FFFFFFFFFF80041
:101450000000000010000000000FFFFFFFFFF00081
:101460000000000820000000000FFFFFFFFFF00059
:1014700000000004C00000000007FFFFFFFFE000C5
:1014800000000003000000000007FFFFFFFFE03F37
:10149000FFF800021F8000000003FFFFFFFFC03FB6
:1014A000FFF800051F8000000003FFFF00000000A0
:1014B00000000000000000000000001FFFFFC07FD0
:1014C000FFF800005F8000000001FFFFFFFFC03F4A
:1014D000FFF800203F8000000001FFFFFFFFC07FFA
:1014E000FFF800401F8000000001FFFFFFFFC03F2A
:1014F000FFF800801F8000000001FFFFFFFFC00118
:10150000FC0001001F8000000001FFFFFFFFC00181
:10151000FC0002001F8000000001FFFFFFFFC00170
:10152000FC07F4EC1F8FC00FE001FFFFFFFF8001FD
:10153000FC07F8EC1F9FE01FF801FFFFFFFF800191
:10154000FC07F0EC1FFFE03FFC01FFFFFFFF800105
:10155000FC07F0EC1FBFF07FFE01FFFFFFFF8001E3
:10156000FC07F0EC1FFFF07FFF01FFFFFFFF800192
:10157000FC07F0EC1FFFF0FFFF01FFFFFFFF800102
:10158000FC07F0EC1FFFF0FE3F01FFFFFFFF8001B3
:10159000FC07F0EC1FEFF0FE3F01FFFFFFFF8001B3
:1015A000FC07F0EC1FC7F0FC3F01FFFFFFFF8001CD
:1015B000FC0FF0EC1F87F0FC3F01FFFFFFFF8001F5
:1015C000FC17F0EC1F87F1FC3F01FFFFFFFF8001DC
:1015D000FC27F0EC1F87F1FC3F81FFFFFFFF80013C
:1015E000FC47F0EC1F87F1FC3F81FFFFFFFF80010C
:1015F000FC87F0EC1F87F9FFFF81FFFFFFFF8001F1
:10160000FD07F0EC1F87F5FFFF81FFFFFFFF800163
:10161000FE07F0EC1F87F3FFFF81FFFFFFFF800154
:10162000FC07F0EC1F87F1FFFF81FFFFFFFF800148
:10163000FC07F0EC1F87F1FC0001FFFFFFFF8001BA
:10164000FC07F0EC1F87F1FC0001FFFFFFFF8001AA
:10165000FC07F0EC1F87F1FC0001FFFFFFFF80019A
:10166000FC07F0EC1F87F1FC3F81FFFFFFFF8001CB
:10167000FC07F0EC1F87F1FC3F81FFFFFFFF8001BB
:10168000FC07F0EC1F87F1FC3F81FFFFFFFF8003A9
:10169000FC07F0EC1F87F0FE3F81FFFFFFFFC00556
:1016A000FC07F0EC1FC7F0FD3F81FFFFFFFFC00903
:1016B000FC07F9EC1FFFF0FEBF01FFFFFFFFC011A9
:1016C000FC07FFEC1FFFF0FE7F01FFFFFFFFC021C3
:1016D000FC07FFEC1FFFF0FE7F01FFFFFFFFC04193
:1016E000FC07FFEC1FFFF07FFF01FFFFFFFFC08142
:1016F000FC03FFEC1F9FE03FFE01FFFFFFFFC10166
:10170000FC03FCEC1F9FE03FFC01FFFFFFFFC2005A
:10171000FC01F8EC1F8FC00FFA01FFFFFFFFC400B0
:101720000000600000030001C103FFFFFFFFE800AD
:1017300000000000000000000103FFFFFFFFF000B9
:1017400000000000000000000087FFFFFFFFF00026
:1017500000000000000000000047FFFFFFFFF8004E
:101760000000000000000000002FFFFFFFFFF80056
:101770000000000000000000001FFFFFFFFFFC0052
:101780000000000000000000003FFFFFFFFFFF001F
:101790000000000000000000007FFFFFFFFFFF00CF
:1017A000000000000000000000FFFFFFFFFFFFE05F
:1017B000000000000000000003FFFFFFFFFFFFF03C
:1017C00000000000000000000FFFFFFFFFFFFFFF11
:1017D000FF0000000000007FFFFFFFFFFFFFFFFF93
:1017E000FFFFFFEFFFFFFFFFFFFFFFFFFFFFFFFF19
:1017F000FFFFFFEFFFFFFFFFFFFFFFFF7FFFFFFF89
:10180000FFFFFFEFFFFFFFFFFFFFFFFF7FFFFFFF78
:10181000FFFFFFEFFFFFFFFFFFFFFFFE3FFFFFFFA9
:10182000FFFFFFEFFFFFFFFFFFFFFFFE3FFFFFFF99
:10183000FFFFFFEFFFFFFFFFFFFFFFFE1FFFFFFFA9
:10184000FFFFFFFFFFFFFFFFFFFFFFFC2FFFFFFF7B
:10185000FFFFFFFFFFFFFFFFFFFFFFF807FFFFFF97
:10186000FFFFFFFFFFFFFFFFFFFFFFF003FFFFFF93
:10187000FFFFFFFFFFFFFFFFFFFFFFE000FFFFFF96
:10188000FFFFFFFFFFFFFFFFFFFFFF000000000063
:101890000000000000000000000000002000000028
:1018A0000000000000000000000000001000000028
:1018B0000000000000000000000000000800000020
:1018C000000000000000000000000008040000000C
:1018D00000000000000000000000001002000000F6
:1018E00000000000000000003E0000200100000099
:1018F00000000000000000077000004000800000B1
:101900000000000000000038C0000080004000001F
:1019100000000000000001C30000010000200000E2
:101920000000000000000E1C00000200001000007B
:1019300000000000000030780000040000080000F3
:10194000000000000000C09000000800000400003B
:101950000000000000010320000010000002000051
:101960000000000000060C40000020000001000004
:10197000000000000008104000004000000080004F
:101980000000000000306080000080000000400087
:101990000000000000408100000100000000200065
:1019A00000000000008301010002000000001000A0
:1019B0000000000001060200E00400000000080032
:1019C00000000000020804009808000000FFE40086
:1019D0000000FFC00410040044100000001F1F009E
:1019E000000F00180820000023200000000661C03E
:1019F000007000039040080011C0000000010C704E
:101A0000018000007080080010C000000000832CDE
:101A1000020000002100080009200000000040D35F
:101A20000C000000410008000610000000002038F3
:101A30009000000042000800040800000000101C94
:101A400060000000420006000A04000000000806D2
:101A50002000000042000180120200000000040586
:101A600040000000418000602101000000000402ED
:101A700080000000203FFFF04100800000000402D1
:101A8000C00000781807C0088080800000000402B1
:101A9000200000CA07F001E90080400000000403B4
:101AA0001000008A004001260040200000000805C8
:101AB000080000CA004002AC0040200000001809E5
:101AC000040000FA0020025800201000000010302E
:101AD0000200007A0020013980201000000021FE61
:101AE0003D000078002000E16020080000005E0258
:101AF000768000107C2000809810080000006002B2
:101B00007240000082100100861004000000C00234
:101B10007E240031011002004110040000008C02FC
:101B20007E1C00120090040040C0020000009202DF
:101B30003C0807F2009008002068020000008202C2
:101B40003C047822001010002018020000008202DD
:101B50000007000200482000200801000000640483
:101B6000001900120088400010000100000010075A
:101B7000C460801200888000100001000000000492
:101B800027805E3101090000000000000000000411
:101B900010806010830A00000800008000000784A5
:101BA000104090007C0C000008000080000070389D
:101BB0000841082000080000080000800000801490
:101BC00008220420001400000000008000010044EE
:101BD00008140220002400000400008000010042DC
:101BE0000818012000440000040000000002002248
:101BF000080800A00084000004000040000100115B
:101C00000804004001043E000400004000010010F0
:101C1000900400600205C180040000400000C03054
:101C20006002001004060040040000400000208014
:101C3000600100880818004004000040000018807F
:101C400030008100103000200402004000000480B9
:101C500018004102205000200403004000000380CF
:101C60000400360140880020040580400000018007
:101C700002000800C1080020040480400000004069
:101C8000010000012108002004084000000000605D
:101C90000000000212100020040820800000002034
:101CA000000000000810004008081080000000102C
:101CB0000000000804100040081010800000000020
:101CC0000000000000000000000000000000003CD8
:101CD00040000020011E008010200400000000C40D
:101CE000400000400080C1001040050000000302D9
:101CF0000000008000404200204003000000041E5D
:101D00008000010000204C002080020000001861CB
:101D1000800002000010300041000000000021811E
:101D2000000004000008C000830000000000420121
:101D300000000800000EF00306000000000084010F
:101D40000060100000028E0C0C0000000001080171
:101D5000009C200000010030100000000001100174
:101D600002FA40000000E060600000000002200372
:101D700005CA800000005C638000000000022006AD
:101D8000C60B0000000021FC000000000004400819
:101D90002C0A000000009000000000000004401029
:101DA0001C06000000008800000000000004402025
:101DB000080A000000008400000000000004402029
:101DC0000812000000008200000000000002204015
:101DD00008220000000081000000000000021C40FA
:101DE0001842000000008080000000000001018017
:101DF0001882000000008040000000000000808089
:101E00001902000000018020000000000000608036
:101E10001A020000000140100000000000001C80B9
:101E200014020000000140080000000000000380D0
:101E300018020000000040040000000000000080C4
:101E400018020000000240020000000000000080B4
:101E50002802000000004001000000000000008097
:101E6000C8020000000040008000000000000041A7
:101E70000822000000004000400000000000004276
:101E80000852000000004000200000000000004454
:101E90000C4A000000004000100000000000002874
:101EA0000C4A000000004000080000000000003064
:101EB0000C4A000000104000040000000000003048
:101EC0000448000000204000020000000000005014
:101ED00002290000004040000100000000000088CE
:101EE0000229000000804000008000000000010482
:101EF0000019000003008000004000000000020202
:101F00000301000004008000003000000000040114
:101F10000301000018008000000800000000080015
:101F2000C1810000600100000004000000001000FA
:101F3000318100018001000000020000000020004B
:101F40000FC1001800020000000100000000400066
:101F500000C17FC00002000000008000000080007F
:101F600000610100000400000000400000010000CA
:101F70000032018000080000000020000002000084
:101F800000000140001800000000100000040000E4
:101F900000000122003000000000080000080000DE
:101FA0000000011B006000000000040000100000A1
:101FB00000000100818000000000020000200000FD
:101FC000000001007E000000000001000040000051
:101FD00000000100600000000000008000800000A0
:101FE000000001001000000000000040010000009F
:101FF0000000000088000000000000200200000037
:102000000000008024000000000000100400000018
:10201000000000821400000000000008080000001A
:102020000000008118000000000000041000000003
:10203000000000413000000000000002000000002D
:1020400000000023C00000000000000000000000AD
:102050000000000000000000000000000000000080
:102060000000000000000000000000000000000070
:102070000000000000000000000000000000000060
:1020800000000000000000000000000011241FBE3E
:10209000CFEFD0E1DEBFCDBF11E0A0E0B1E0E8E5D9
:1020A000F6E200E00BBF02C007900D92AE32B1071E
:1020B000D9F70E9427110C942A130C9400001F9248
:1020C0000F920FB60F920BB60F9211240F932F930E
:1020D0003F934F935F936F937F938F939F93AF93B0
:1020E000BF93EF93FF930E948E128CE898E060E01C
:1020F00040E020E800E80E94B212FF91EF91BF910A
:10210000AF919F918F917F916F915F914F913F918F
:102110002F910F910F900BBE0F900FBE0F901F903D
:1021200018951F920F920FB60F920BB60F921124B3
:102130000F932F933F934F935F936F937F938F935F
:102140009F93AF93BF93EF93FF930E948E128CE8FF
:1021500090E060E040E020E800E80E94B212FF91C9
:10216000EF91BF91AF919F918F917F916F915F910F
:102170004F913F912F910F910F900BBE0F900FBE7B
:102180000F901F9018951F920F920FB60F920BB6DB
:102190000F9211240F932F933F934F935F936F935D
:1021A0007F938F939F93AF93BF93EF93FF930E947F
:1021B0008E128CE890E160E040E020E800E80E94A8
:1021C000B212FF91EF91BF91AF919F918F917F914B
:1021D0006F915F914F913F912F910F910F900BBE97
:1021E0000F900FBE0F901F9018951F920F920FB671
:1021F0000F920BB60F9211240F932F933F934F938F
:102200005F936F937F938F939F93AF93BF93EF935E
:10221000FF930E948E128CE898E160E040E020E895
:1022200000E80E94B212FF91EF91BF91AF919F9190
:102230008F917F916F915F914F913F912F910F916E
:102240000F900BBE0F900FBE0F901F9018950F931D
:102250001F9384B38FEF84BB8AB782608ABF8AB72B
:102260008E7F8ABF8AB788608ABF8AB78B7F8ABF12
:102270008AB780628ABF8AB78F7E8ABF8AB7806832
:102280008ABF8AB78F7B8ABF89B7806F89BF7894EE
:102290000E94E8120E948E120E94681280E060E0A4
:1022A0000E94D91180E091E00E945B1280E060E022
:1022B0000E94A1120CE30BC0802F612F41E00E940D
:1022C000EC111F5F1534C1F70F5F053411F01CE3EB
:1022D000F3CFFFCFDF93CF930F92CDB7DEB7198245
:1022E00004C0000089818F5F898389818830C8F3A9
:1022F0000F90CF91DF9108958FEF84BB87E78ABB62
:102300008BB387678BBB089514BA8BB38F7C8BBB61
:102310000E946A1183B39FEF94BB9BB390639BBBF6
:1023200008951F93182F0E94841190E0837090707D
:10233000892BC9F315BB8BB38F7A8BBB0E946A11B3
:102340008BB380658BBB1F9108951F93182F0E943C
:10235000841190E083709070892BC9F315BB8BB307
:102360008B7A8BBB0E946A118BB384658BBB1F91E8
:1023700008950E94841190E083709070892BC9F3B6
:1023800014BA8BB38B7C8BBB0E946A1183B39BB353
:1023900094639BBB9FEF94BB08951F93192F0E94DA
:1023A000A511812F0E94A51184E20E9491111F9115
:1023B000089570E094E0660F771F9A95E1F79B010E
:1023C000280F311DC9010E94CD1108950E94A51149
:1023D00080EC0E94911108950F931F93182F042FE2
:1023E00086958695869590E080509F4F70E024E01A
:1023F000660F771F2A95E1F7860F971F0E94CD1170
:1024000085EC0E9491110E94B911482F212F30E0D4
:10241000002369F0209530952770307081E090E0BE
:1024200002C0880F991F2A95E2F7842B0DC02095D2
:1024300030952770307081E090E002C0880F991FBE
:102440002A95E2F7809584230E94E6111F910F914F
:1024500008950F931F93CF93DF938B0190E08050EB
:102460009E4F33E0880F991F3A95E1F70E94CD11F6
:10247000C0E0D0E0F801EC0FFD1F80810E94E61162
:102480002196C830D105B1F7DF91CF911F910F91FF
:10249000089580520E94E6110895CF93DF93EC01D6
:1024A00002C00E944912FE01219684918823C9F737
:1024B000DF91CF910895CF93DF93EC0103C0219674
:1024C0000E94491288818823D1F7DF91CF91089526
:1024D000CF93DF9380E091E00E94CD11C0E0D0E087
:1024E00080E00E94E611219688E0C030D807C1F74D
:1024F000DF91CF910895CF93DF9380E090E10E9428
:10250000CD11C0E0D0E080E00E94E611219688E085
:10251000C030D807C1F7DF91CF910895CF93DF93F3
:1025200080E090E00E94CD11C0E0D0E080E00E9409
:10253000E611219681E0C030D807C1F7DF91CF9135
:10254000089586958695869590E080509F4F70E01F
:1025500044E0660F771F4A95E1F7860F971F0E94A8
:10256000CD110895AF92BF92CF92DF92EF92FF927A
:102570000F931F93CF93DF93A62EB42ED22EC02E8F
:10258000D694D694D6947C0100E015C0602F6B0DD4
:102590008A2D0E94A112E70110E006C0FE0184917D
:1025A0000E94E6111F5F21961D15C0F30F5F80E1A9
:1025B00090E0E80EF91E0C1548F3DF91CF911F91C2
:1025C0000F91FF90EF90DF90CF90BF90AF90089564
:1025D0008FEF84BB87E78ABB8BB387678BBBD998A8
:1025E00080ED97E00197F1F7D99AD89880E00E94A2
:1025F000A51181E00E94A51182E40E94911180E161
:102600000E94A51180E00E94A51183E40E9491110F
:1026100080E00E94A51180E00E94A51180E40E9444
:10262000911180E10E94A51180E00E94A51181E432
:102630000E94911182E00E94A51180E00E94A511E4
:1026400082E20E9491118CE90E94911180E80E941F
:0826500091110895F894FFCFE9
:102658004553544F20455320554E4120505255451F
:1026680042412E2050524553494F4E4553204C4F1E
:0E267800532050554C5341444F5245530000DF
:00000001FF
