:100000000C9446000C945D000C945D000C945D0013
:100010000C945D000C945D000C945D000C945D00EC
:100020000C945D000C945D000C945D000C945D00DC
:100030000C945D000C945D000C945D000C945D00CC
:100040000C945D000C945D000C945D000C945D00BC
:100050000C945D000C945D000C945D000C945D00AC
:100060000C945D000C945D000C945D000C945D009C
:100070000C945D000C945D000C945D000C945D008C
:100080000C945D000C945D000C945D0011241FBE67
:10009000CFEFD0E1DEBFCDBF11E0A0E0B1E0E8ECF2
:1000A000F3E000E00BBF02C007900D92A030B10753
:1000B000D9F70E94CB010C94E2010C9400008CE370
:1000C000809372008CE08093700084E080937400D1
:1000D00081E008958091740087FFFCCF089584EA41
:1000E000809374008091740087FFFCCF8091710031
:1000F000883039F080917100803119F08091710061
:1001000008958FEF089584E9809374000895982FDF
:100110008091740087FFFCCF9093730084E88093F4
:1001200074008091740087FFFCCF80917100883249
:1001300011F48FEF0895809171000895982F8091A8
:10014000740087FFFCCF9093730084E88093740061
:100150008091740087FFFCCF80917100883139F065
:1001600080917100803419F08091710008958FEFB3
:100170000895FC018091740087FFFCCF662311F085
:1001800084EC01C084E8809374008091740087FF40
:10019000FCCF80917300808380917100883511F4C9
:1001A000662339F080917100803519F080917100DB
:1001B00008958FEF0895662311F0A89A01C0A898BA
:1001C000A998A49AA59AA69AA79AAF98AE98AD981E
:1001D000AC9887FDAF9A86FDAE9A85FDAD9A84FDF9
:1001E000AC9AAA9A00C0AA98AF98AE98AD98AC986D
:1001F00083FDAF9A82FDAE9A81FDAD9A80FDAC9AE7
:10020000AA9A00C0AA98AC9AAD9AAE9AAF9A0895ED
:10021000882311F0A89A01C0A898A99AA498A59833
:10022000A698A798AA9A00C09C9B02C080E101C032
:1002300080E09D9980629E9980649F998068AA98C9
:1002400000C0AA9A00C09C9981609D9982609E9985
:1002500084609F998860AA98089580E00E940801B0
:1002600087FDFBCF84E090E00197F1F780E00E94EA
:10027000080108951F93182F0E942D01812F60E01F
:100280000E94DB001F9108951F93182F0E942D01DB
:10029000812F61E00E94DB001F910895662311F415
:1002A000805801C080540E943A0108950E942D0197
:1002B00090E0089581E00E943A01089582E00E9452
:1002C0003A0108951F93182F0E942D011A3049F406
:1002D000803410F080E001C080E480580E943A0130
:1002E00004C0812F61E00E94DB001F910895CF932D
:1002F000DF93EC0102C00E94620189918823D9F743
:10030000DF91CF910895CF93DF93EC0102C00E945B
:100310006201FE01219684918823C9F7DF91CF9174
:1003200008951F93182FA09AA19AA29AA49AA59A09
:10033000A69AA79A80E09DE70197F1F7AD9AAC9A4B
:10034000AA9A00C0AA9880E097E20197F1F7AA9ACA
:1003500000C0AA9880E890E0FC013197F1F7AA9AD2
:1003600000C0AA98FC013197F1F7AC98AA9A00C096
:10037000AA980197F1F788E20E943A0188E00E946A
:100380003A010E945A0186E00E943A01812F0E94A0
:100390003A011F9108950E945F000E946F0080E45F
:1003A0000E949E0085E50E9487000E9483000E94B3
:1003B0006F008EE40E949E0080EF0E9487000E94E2
:0803C0008300FFCFF894FFCF8A
:00000001FF
