:100000000C9446000C9465000C9465000C946500FB
:100010000C9465000C9465000C9465000C946500CC
:100020000C9465000C9465000C9465000C946500BC
:100030000C9465000C9465000C9465000C946500AC
:100040000C9465000C9465000C9465000C9465009C
:100050000C9465000C9465000C9465000C9465008C
:100060000C9465000C9465000C9465000C9465007C
:100070000C9465000C9465000C9465000C9465006C
:100080000C9465000C9465000C94650011241FBE4F
:10009000CFEFD0E1DEBFCDBF11E0A0E0B1E0E4E002
:1000A000F3E000E00BBF02C007900D92AC30B10747
:1000B000D9F711E0ACE0B1E001C01D92AD30B1075D
:1000C000E1F70E9468010C9480010C940000662303
:1000D00011F0A89A01C0A898A998A49AA59AA69ADE
:1000E000A79AAF98AE98AD98AC9887FDAF9A86FD69
:1000F000AE9A85FDAD9A84FDAC9AAA9A00C0AA98E2
:10010000AF98AE98AD98AC9883FDAF9A82FDAE9A49
:1001100081FDAD9A80FDAC9AAA9A00C0AA98AC9ACB
:10012000AD9AAE9AAF9A0895882311F0A89A01C0AB
:10013000A898A99AA498A598A698A798AA9A00C042
:100140009C9B02C080E101C080E09D9980629E99E5
:1001500080649F998068AA9800C0AA9A00C09C9960
:1001600081609D9982609E9984609F998860AA9819
:10017000089580E00E94940087FDFBCF84E090E02A
:100180000197F1F780E00E94940008951F93182FC3
:100190000E94B900812F60E00E9467001F910895BE
:1001A0001F93182F0E94B900812F61E00E94670001
:1001B0001F910895662311F4805801C080540E9455
:1001C000C60008950E94B90090E0089581E00E9461
:1001D000C600089582E00E94C60008951F93182F5C
:1001E0000E94B9001A3049F4803410F080E001C058
:1001F00080E480580E94C60004C0812F61E00E9404
:1002000067001F910895CF93DF93EC0102C00E9415
:10021000EE0089918823D9F7DF91CF910895CF938C
:10022000DF93EC0102C00E94EE00FE012196849152
:100230008823C9F7DF91CF9108951F93182FA09AB3
:10024000A19AA29AA49AA59AA69AA79A80E09DE755
:100250000197F1F7AD9AAC9AAA9A00C0AA9880E0EB
:1002600097E20197F1F7AA9A00C0AA9880E890E077
:10027000FC013197F1F7AA9A00C0AA98FC013197C6
:10028000F1F7AC98AA9A00C0AA980197F1F788E212
:100290000E94C60088E00E94C6000E94E60086E038
:1002A0000E94C600812F0E94C6001F9108955D9B89
:1002B000FECF8CB908955F9BFECF8CB10895FC01F1
:1002C00003C05D9BFECF8CB981918823D1F708953F
:1002D0008AB188618AB98091950086608093950083
:1002E00083E389B91092900080E091E00E945F0161
:1002F0005F9BFECF8CB15D9BFECF8F5F8CB9F8CF3B
:04030000F894FFCF9F
:0C030400484F4C41204D554E444F000026
:00000001FF
